{
  "contractName": "BankSol",
  "abi": [
    {
      "inputs": [],
      "name": "deposit",
      "outputs": [],
      "stateMutability": "payable",
      "type": "function"
    },
    {
      "inputs": [],
      "name": "getBalance",
      "outputs": [
        {
          "internalType": "uint256",
          "name": "",
          "type": "uint256"
        }
      ],
      "stateMutability": "view",
      "type": "function"
    },
    {
      "inputs": [
        {
          "internalType": "uint256",
          "name": "amount",
          "type": "uint256"
        }
      ],
      "name": "withdraw",
      "outputs": [],
      "stateMutability": "nonpayable",
      "type": "function"
    }
  ],
  "bytecode": "0x6080604052348015600e575f5ffd5b506104b88061001c5f395ff3fe608060405260043610610033575f3560e01c806312065fe0146100375780632e1a7d4d14610061578063d0e30db014610089575b5f5ffd5b348015610042575f5ffd5b5061004b610093565b604051610058919061029d565b60405180910390f35b34801561006c575f5ffd5b50610087600480360381019061008291906102e4565b6100d6565b005b610091610231565b005b5f5f5f3373ffffffffffffffffffffffffffffffffffffffff1673ffffffffffffffffffffffffffffffffffffffff1681526020019081526020015f2054905090565b805f5f3373ffffffffffffffffffffffffffffffffffffffff1673ffffffffffffffffffffffffffffffffffffffff1681526020019081526020015f20541015610155576040517f08c379a000000000000000000000000000000000000000000000000000000000815260040161014c90610369565b60405180910390fd5b80471015610198576040517f08c379a000000000000000000000000000000000000000000000000000000000815260040161018f906103d1565b60405180910390fd5b805f5f3373ffffffffffffffffffffffffffffffffffffffff1673ffffffffffffffffffffffffffffffffffffffff1681526020019081526020015f205f8282546101e3919061041c565b925050819055503373ffffffffffffffffffffffffffffffffffffffff166108fc8290811502906040515f60405180830381858888f1935050505015801561022d573d5f5f3e3d5ffd5b5050565b345f5f3373ffffffffffffffffffffffffffffffffffffffff1673ffffffffffffffffffffffffffffffffffffffff1681526020019081526020015f205f82825461027c919061044f565b92505081905550565b5f819050919050565b61029781610285565b82525050565b5f6020820190506102b05f83018461028e565b92915050565b5f5ffd5b6102c381610285565b81146102cd575f5ffd5b50565b5f813590506102de816102ba565b92915050565b5f602082840312156102f9576102f86102b6565b5b5f610306848285016102d0565b91505092915050565b5f82825260208201905092915050565b7f496e73756666696369656e742062616c616e63650000000000000000000000005f82015250565b5f61035360148361030f565b915061035e8261031f565b602082019050919050565b5f6020820190508181035f83015261038081610347565b9050919050565b7f436f6e74726163742068617320696e73756666696369656e742066756e6473005f82015250565b5f6103bb601f8361030f565b91506103c682610387565b602082019050919050565b5f6020820190508181035f8301526103e8816103af565b9050919050565b7f4e487b71000000000000000000000000000000000000000000000000000000005f52601160045260245ffd5b5f61042682610285565b915061043183610285565b9250828203905081811115610449576104486103ef565b5b92915050565b5f61045982610285565b915061046483610285565b925082820190508082111561047c5761047b6103ef565b5b9291505056fea2646970667358221220eb80f1277b3c108af009d24e14208f585f7edebeeaf1186e9b390395307caae564736f6c634300081c0033",
  "immutableReferences": {},
  "source": "// SPDX-License-Identifier: MIT\npragma solidity >=0.4.22 <0.9.0;\n\ncontract BankSol {\n    mapping(address => uint256) private balances;\n\n    // \n    function deposit() public payable {\n        balances[msg.sender] += msg.value;\n    }\n\n    // \n    function getBalance() public view returns (uint256) {\n        return balances[msg.sender];\n    }\n\n    // \n    function withdraw(uint256 amount) public {\n        require(balances[msg.sender] >= amount, \"Insufficient balance\"); // \n        require(address(this).balance >= amount, \"Contract has insufficient funds\"); // \n\n        balances[msg.sender] -= amount; // \n        payable(msg.sender).transfer(amount); // \n    }\n}",
  "sourcePath": "/Users/gaotian/Documents/blog//web3-//bankSolForWork/contracts/bankSol.sol",
  "compiler": {
    "name": "solc",
    "version": "0.8.28+commit.7893614a.Emscripten.clang"
  },
  "schemaVersion": "3.4.16",
  "updatedAt": "2025-02-09T10:59:56.562Z",
  "devdoc": {
    "kind": "dev",
    "methods": {},
    "version": 1
  },
  "userdoc": {
    "kind": "user",
    "methods": {},
    "version": 1
  }
}