{
  "contractName": "DeFiDeposit",
  "abi": [
    {
      "anonymous": false,
      "inputs": [
        {
          "indexed": true,
          "internalType": "address",
          "name": "user",
          "type": "address"
        },
        {
          "indexed": false,
          "internalType": "uint256",
          "name": "amount",
          "type": "uint256"
        }
      ],
      "name": "Deposit",
      "type": "event"
    },
    {
      "anonymous": false,
      "inputs": [
        {
          "indexed": true,
          "internalType": "address",
          "name": "user",
          "type": "address"
        },
        {
          "indexed": false,
          "internalType": "uint256",
          "name": "interest",
          "type": "uint256"
        }
      ],
      "name": "InterestCalculated",
      "type": "event"
    },
    {
      "anonymous": false,
      "inputs": [
        {
          "indexed": true,
          "internalType": "address",
          "name": "user",
          "type": "address"
        },
        {
          "indexed": false,
          "internalType": "uint256",
          "name": "amount",
          "type": "uint256"
        },
        {
          "indexed": false,
          "internalType": "uint256",
          "name": "interest",
          "type": "uint256"
        }
      ],
      "name": "Withdrawal",
      "type": "event"
    },
    {
      "stateMutability": "payable",
      "type": "fallback"
    },
    {
      "inputs": [],
      "name": "ANNUAL_INTEREST_RATE",
      "outputs": [
        {
          "internalType": "uint256",
          "name": "",
          "type": "uint256"
        }
      ],
      "stateMutability": "view",
      "type": "function"
    },
    {
      "inputs": [],
      "name": "MAX_WITHDRAWAL_PERCENTAGE",
      "outputs": [
        {
          "internalType": "uint256",
          "name": "",
          "type": "uint256"
        }
      ],
      "stateMutability": "view",
      "type": "function"
    },
    {
      "inputs": [],
      "name": "SECONDS_PER_YEAR",
      "outputs": [
        {
          "internalType": "uint256",
          "name": "",
          "type": "uint256"
        }
      ],
      "stateMutability": "view",
      "type": "function"
    },
    {
      "inputs": [
        {
          "internalType": "address",
          "name": "",
          "type": "address"
        }
      ],
      "name": "deposits",
      "outputs": [
        {
          "internalType": "uint256",
          "name": "amount",
          "type": "uint256"
        },
        {
          "internalType": "uint256",
          "name": "timestamp",
          "type": "uint256"
        },
        {
          "internalType": "uint256",
          "name": "lastInterestCalculation",
          "type": "uint256"
        }
      ],
      "stateMutability": "view",
      "type": "function"
    },
    {
      "stateMutability": "payable",
      "type": "receive"
    },
    {
      "inputs": [],
      "name": "deposit",
      "outputs": [],
      "stateMutability": "payable",
      "type": "function"
    },
    {
      "inputs": [
        {
          "internalType": "address",
          "name": "user",
          "type": "address"
        }
      ],
      "name": "calculateInterest",
      "outputs": [
        {
          "internalType": "uint256",
          "name": "",
          "type": "uint256"
        }
      ],
      "stateMutability": "view",
      "type": "function"
    },
    {
      "inputs": [
        {
          "internalType": "uint256",
          "name": "amount",
          "type": "uint256"
        }
      ],
      "name": "withdraw",
      "outputs": [],
      "stateMutability": "nonpayable",
      "type": "function"
    },
    {
      "inputs": [],
      "name": "withdrawAll",
      "outputs": [],
      "stateMutability": "nonpayable",
      "type": "function"
    },
    {
      "inputs": [
        {
          "internalType": "address",
          "name": "user",
          "type": "address"
        }
      ],
      "name": "getTotalBalance",
      "outputs": [
        {
          "internalType": "uint256",
          "name": "",
          "type": "uint256"
        }
      ],
      "stateMutability": "view",
      "type": "function"
    },
    {
      "inputs": [],
      "name": "getContractBalance",
      "outputs": [
        {
          "internalType": "uint256",
          "name": "",
          "type": "uint256"
        }
      ],
      "stateMutability": "view",
      "type": "function"
    }
  ],
  "bytecode": "0x6080604052348015600e575f80fd5b50610ee88061001c5f395ff3fe608060405260043610610094575f3560e01c8063d3d3819311610058578063d3d38193146101ab578063e11932cf146101e7578063e6a69ab814610223578063fa3c30921461024d578063fc7e286d14610277576100d4565b80632e1a7d4d1461010f5780636f9fb98a14610137578063853828b614610161578063b678339314610177578063d0e30db0146101a1576100d4565b366100d4576040517f08c379a00000000000000000000000000000000000000000000000000000000081526004016100cb9061086d565b60405180910390fd5b6040517f08c379a0000000000000000000000000000000000000000000000000000000008152600401610106906108d5565b60405180910390fd5b34801561011a575f80fd5b506101356004803603810190610130919061092a565b6102b5565b005b348015610142575f80fd5b5061014b610515565b6040516101589190610964565b60405180910390f35b34801561016c575f80fd5b5061017561051c565b005b348015610182575f80fd5b5061018b610557565b6040516101989190610964565b60405180910390f35b6101a961055d565b005b3480156101b6575f80fd5b506101d160048036038101906101cc91906109d7565b6106da565b6040516101de9190610964565b60405180910390f35b3480156101f2575f80fd5b5061020d600480360381019061020891906109d7565b610734565b60405161021a9190610964565b60405180910390f35b34801561022e575f80fd5b506102376107e1565b6040516102449190610964565b60405180910390f35b348015610258575f80fd5b506102616107e9565b60405161026e9190610964565b60405180910390f35b348015610282575f80fd5b5061029d600480360381019061029891906109d7565b6107ee565b6040516102ac93929190610a02565b60405180910390f35b5f805f3373ffffffffffffffffffffffffffffffffffffffff1673ffffffffffffffffffffffffffffffffffffffff1681526020019081526020015f20905081815f0154101561033a576040517f08c379a000000000000000000000000000000000000000000000000000000000815260040161033190610a81565b60405180910390fd5b5f821161037c576040517f08c379a000000000000000000000000000000000000000000000000000000000815260040161037390610b0f565b60405180910390fd5b5f61038633610734565b90505f81835f01546103989190610b5a565b90505f60646032836103aa9190610b8d565b6103b49190610bfb565b9050808511156103f9576040517f08c379a00000000000000000000000000000000000000000000000000000000081526004016103f090610c75565b60405180910390fd5b84826104059190610c93565b845f01819055504284600201819055505f3373ffffffffffffffffffffffffffffffffffffffff168660405161043a90610cf3565b5f6040518083038185875af1925050503d805f8114610474576040519150601f19603f3d011682016040523d82523d5f602084013e610479565b606091505b50509050806104bd576040517f08c379a00000000000000000000000000000000000000000000000000000000081526004016104b490610d51565b60405180910390fd5b3373ffffffffffffffffffffffffffffffffffffffff167fdf273cb619d95419a9cd0ec88123a0538c85064229baa6363788f743fff90deb8786604051610505929190610d6f565b60405180910390a2505050505050565b5f47905090565b6040517f08c379a000000000000000000000000000000000000000000000000000000000815260040161054e90610e06565b60405180910390fd5b6101f481565b5f341161059f576040517f08c379a000000000000000000000000000000000000000000000000000000000815260040161059690610e94565b60405180910390fd5b5f805f3373ffffffffffffffffffffffffffffffffffffffff1673ffffffffffffffffffffffffffffffffffffffff1681526020019081526020015f2090505f815f0154111561065e575f6105f333610734565b905080825f015f8282546106079190610b5a565b925050819055503373ffffffffffffffffffffffffffffffffffffffff167f3aff28a570e0ff120bf92f84de651faa874ba2dd7268ad0fc5a6810749272979826040516106549190610964565b60405180910390a2505b34815f015f8282546106709190610b5a565b925050819055504281600101819055504281600201819055503373ffffffffffffffffffffffffffffffffffffffff167fe1fffcc4923d04b559f4d29a8bfc6cda04eb5b0d3c460751c2402c5c5cc9109c346040516106cf9190610964565b60405180910390a250565b5f6106e482610734565b5f808473ffffffffffffffffffffffffffffffffffffffff1673ffffffffffffffffffffffffffffffffffffffff1681526020019081526020015f205f015461072d9190610b5a565b9050919050565b5f805f808473ffffffffffffffffffffffffffffffffffffffff1673ffffffffffffffffffffffffffffffffffffffff1681526020019081526020015f2090505f815f015403610787575f9150506107dc565b5f8160020154426107989190610c93565b90505f6127106301e133806107ad9190610b8d565b826101f4855f01546107bf9190610b8d565b6107c99190610b8d565b6107d39190610bfb565b90508093505050505b919050565b6301e1338081565b603281565b5f602052805f5260405f205f91509050805f0154908060010154908060020154905083565b5f82825260208201905092915050565b7f557365206465706f736974282920746f206465706f73697420455448000000005f82015250565b5f610857601c83610813565b915061086282610823565b602082019050919050565b5f6020820190508181035f8301526108848161084b565b9050919050565b7f46756e6374696f6e20646f6573206e6f742065786973740000000000000000005f82015250565b5f6108bf601783610813565b91506108ca8261088b565b602082019050919050565b5f6020820190508181035f8301526108ec816108b3565b9050919050565b5f80fd5b5f819050919050565b610909816108f7565b8114610913575f80fd5b50565b5f8135905061092481610900565b92915050565b5f6020828403121561093f5761093e6108f3565b5b5f61094c84828501610916565b91505092915050565b61095e816108f7565b82525050565b5f6020820190506109775f830184610955565b92915050565b5f73ffffffffffffffffffffffffffffffffffffffff82169050919050565b5f6109a68261097d565b9050919050565b6109b68161099c565b81146109c0575f80fd5b50565b5f813590506109d1816109ad565b92915050565b5f602082840312156109ec576109eb6108f3565b5b5f6109f9848285016109c3565b91505092915050565b5f606082019050610a155f830186610955565b610a226020830185610955565b610a2f6040830184610955565b949350505050565b7f496e73756666696369656e742062616c616e63650000000000000000000000005f82015250565b5f610a6b601483610813565b9150610a7682610a37565b602082019050919050565b5f6020820190508181035f830152610a9881610a5f565b9050919050565b7f5769746864726177616c20616d6f756e74206d757374206265206772656174655f8201527f72207468616e2030000000000000000000000000000000000000000000000000602082015250565b5f610af9602883610813565b9150610b0482610a9f565b604082019050919050565b5f6020820190508181035f830152610b2681610aed565b9050919050565b7f4e487b71000000000000000000000000000000000000000000000000000000005f52601160045260245ffd5b5f610b64826108f7565b9150610b6f836108f7565b9250828201905080821115610b8757610b86610b2d565b5b92915050565b5f610b97826108f7565b9150610ba2836108f7565b9250828202610bb0816108f7565b91508282048414831517610bc757610bc6610b2d565b5b5092915050565b7f4e487b71000000000000000000000000000000000000000000000000000000005f52601260045260245ffd5b5f610c05826108f7565b9150610c10836108f7565b925082610c2057610c1f610bce565b5b828204905092915050565b7f45786365656473206d6178696d756d207769746864726177616c206c696d69745f82015250565b5f610c5f602083610813565b9150610c6a82610c2b565b602082019050919050565b5f6020820190508181035f830152610c8c81610c53565b9050919050565b5f610c9d826108f7565b9150610ca8836108f7565b9250828203905081811115610cc057610cbf610b2d565b5b92915050565b5f81905092915050565b50565b5f610cde5f83610cc6565b9150610ce982610cd0565b5f82019050919050565b5f610cfd82610cd3565b9150819050919050565b7f5472616e73666572206661696c656400000000000000000000000000000000005f82015250565b5f610d3b600f83610813565b9150610d4682610d07565b602082019050919050565b5f6020820190508181035f830152610d6881610d2f565b9050919050565b5f604082019050610d825f830185610955565b610d8f6020830184610955565b9392505050565b7f46756e6374696f6e2064697361626c656420746f2070726576656e742062616e5f8201527f6b2072756e000000000000000000000000000000000000000000000000000000602082015250565b5f610df0602583610813565b9150610dfb82610d96565b604082019050919050565b5f6020820190508181035f830152610e1d81610de4565b9050919050565b7f4465706f73697420616d6f756e74206d757374206265206772656174657220745f8201527f68616e2030000000000000000000000000000000000000000000000000000000602082015250565b5f610e7e602583610813565b9150610e8982610e24565b604082019050919050565b5f6020820190508181035f830152610eab81610e72565b905091905056fea2646970667358221220d2da6105bada94de4fb7ef02b80026999201900444fd1adc7d8fc01f74ae70e864736f6c634300081a0033",
  "immutableReferences": {},
  "source": "// SPDX-License-Identifier: MIT\npragma solidity ^0.8.0;\n\n/**\n * @title DeFiDeposit\n * @dev \n * @notice \n * @author Your Name\n */\ncontract DeFiDeposit {\n    // \n    \n    /**\n     * @dev \n     * @notice \n     */\n    struct DepositInfo {\n        uint256 amount;      // \n        uint256 timestamp;   // \n        uint256 lastInterestCalculation; // \n    }\n    \n    /**\n     * @dev \n     */\n    mapping(address => DepositInfo) public deposits;\n    \n    /**\n     * @dev (1% = 100)\n     * 500  5% \n     */\n    uint256 public constant ANNUAL_INTEREST_RATE = 500; // 5% \n    \n    /**\n     * @dev ()\n     */\n    uint256 public constant MAX_WITHDRAWAL_PERCENTAGE = 50; // 50%\n    \n    /**\n     * @dev \n     */\n    uint256 public constant SECONDS_PER_YEAR = 31536000; // 365 days\n    \n    // \n    event Deposit(address indexed user, uint256 amount);\n    event Withdrawal(address indexed user, uint256 amount, uint256 interest);\n    event InterestCalculated(address indexed user, uint256 interest);\n\n    /**\n     * @dev ETH\n     */\n    function deposit() public payable {\n        require(msg.value > 0, \"Deposit amount must be greater than 0\");\n        \n        DepositInfo storage userDeposit = deposits[msg.sender];\n        \n        // \n        if (userDeposit.amount > 0) {\n            uint256 interest = calculateInterest(msg.sender);\n            userDeposit.amount += interest;\n            emit InterestCalculated(msg.sender, interest);\n        }\n        \n        // \n        userDeposit.amount += msg.value;\n        userDeposit.timestamp = block.timestamp;\n        userDeposit.lastInterestCalculation = block.timestamp;\n        \n        emit Deposit(msg.sender, msg.value);\n    }\n\n    /**\n     * @dev \n     * @param user \n     * @return \n     */\n    function calculateInterest(address user) public view returns (uint256) {\n        DepositInfo storage userDeposit = deposits[user];\n        \n        if (userDeposit.amount == 0) {\n            return 0;\n        }\n        \n        uint256 timeElapsed = block.timestamp - userDeposit.lastInterestCalculation;\n        \n        //  *  * \n        uint256 interest = (userDeposit.amount * ANNUAL_INTEREST_RATE * timeElapsed) \n                         / (SECONDS_PER_YEAR * 10000);\n                         \n        return interest;\n    }\n\n    /**\n     * @dev ETH\n     * @param amount \n     */\n    function withdraw(uint256 amount) public {\n        DepositInfo storage userDeposit = deposits[msg.sender];\n        \n        require(userDeposit.amount >= amount, \"Insufficient balance\");\n        require(amount > 0, \"Withdrawal amount must be greater than 0\");\n        \n        // \n        uint256 interest = calculateInterest(msg.sender);\n        uint256 totalBalance = userDeposit.amount + interest;\n        \n        // \n        uint256 maxWithdrawal = (totalBalance * MAX_WITHDRAWAL_PERCENTAGE) / 100;\n        require(amount <= maxWithdrawal, \"Exceeds maximum withdrawal limit\");\n        \n        // \n        userDeposit.amount = totalBalance - amount;\n        userDeposit.lastInterestCalculation = block.timestamp;\n        \n        // ETH\n        (bool success, ) = payable(msg.sender).call{value: amount}(\"\");\n        require(success, \"Transfer failed\");\n        \n        emit Withdrawal(msg.sender, amount, interest);\n    }\n\n    /**\n     * @dev \n     * @notice \n     */\n    function withdrawAll() public {\n        revert(\"Function disabled to prevent bank run\");\n    }\n\n    /**\n     * @dev \n     * @param user \n     * @return ()\n     */\n    function getTotalBalance(address user) public view returns (uint256) {\n        return deposits[user].amount + calculateInterest(user);\n    }\n\n    /**\n     * @dev \n     */\n    function getContractBalance() public view returns (uint256) {\n        return address(this).balance;\n    }\n\n    receive() external payable {\n        revert(\"Use deposit() to deposit ETH\");\n    }\n\n    fallback() external payable {\n        revert(\"Function does not exist\");\n    }\n}",
  "sourcePath": "/Users/gaotian/Documents/blog//web3-//bankSolForWork/contracts/example.sol",
  "compiler": {
    "name": "solc",
    "version": "0.8.26+commit.8a97fa7a.Emscripten.clang"
  },
  "schemaVersion": "3.4.16",
  "updatedAt": "2025-02-11T10:40:29.828Z",
  "devdoc": {
    "author": "Your Name",
    "details": "",
    "kind": "dev",
    "methods": {
      "calculateInterest(address)": {
        "details": "",
        "params": {
          "user": ""
        },
        "returns": {
          "_0": ""
        }
      },
      "deposit()": {
        "details": "ETH"
      },
      "getContractBalance()": {
        "details": ""
      },
      "getTotalBalance(address)": {
        "details": "",
        "params": {
          "user": ""
        },
        "returns": {
          "_0": "()"
        }
      },
      "withdraw(uint256)": {
        "details": "ETH",
        "params": {
          "amount": ""
        }
      },
      "withdrawAll()": {
        "details": ""
      }
    },
    "stateVariables": {
      "ANNUAL_INTEREST_RATE": {
        "details": "(1% = 100) 500  5% "
      },
      "MAX_WITHDRAWAL_PERCENTAGE": {
        "details": "()"
      },
      "SECONDS_PER_YEAR": {
        "details": ""
      },
      "deposits": {
        "details": ""
      }
    },
    "title": "DeFiDeposit",
    "version": 1
  },
  "userdoc": {
    "kind": "user",
    "methods": {
      "withdrawAll()": {
        "notice": ""
      }
    },
    "notice": "",
    "version": 1
  }
}